{
  "_format": "hh-sol-artifact-1",
  "contractName": "RenderverseSwap",
  "sourceName": "contracts/RenderverseSwap.sol",
  "abi": [
    {
      "inputs": [
        {
          "internalType": "address",
          "name": "_tokenAddress",
          "type": "address"
        }
      ],
      "stateMutability": "nonpayable",
      "type": "constructor"
    },
    {
      "anonymous": false,
      "inputs": [
        {
          "indexed": true,
          "internalType": "bytes32",
          "name": "role",
          "type": "bytes32"
        },
        {
          "indexed": true,
          "internalType": "bytes32",
          "name": "previousAdminRole",
          "type": "bytes32"
        },
        {
          "indexed": true,
          "internalType": "bytes32",
          "name": "newAdminRole",
          "type": "bytes32"
        }
      ],
      "name": "RoleAdminChanged",
      "type": "event"
    },
    {
      "anonymous": false,
      "inputs": [
        {
          "indexed": true,
          "internalType": "bytes32",
          "name": "role",
          "type": "bytes32"
        },
        {
          "indexed": true,
          "internalType": "address",
          "name": "account",
          "type": "address"
        },
        {
          "indexed": true,
          "internalType": "address",
          "name": "sender",
          "type": "address"
        }
      ],
      "name": "RoleGranted",
      "type": "event"
    },
    {
      "anonymous": false,
      "inputs": [
        {
          "indexed": true,
          "internalType": "bytes32",
          "name": "role",
          "type": "bytes32"
        },
        {
          "indexed": true,
          "internalType": "address",
          "name": "account",
          "type": "address"
        },
        {
          "indexed": true,
          "internalType": "address",
          "name": "sender",
          "type": "address"
        }
      ],
      "name": "RoleRevoked",
      "type": "event"
    },
    {
      "inputs": [],
      "name": "DEFAULT_ADMIN_ROLE",
      "outputs": [
        {
          "internalType": "bytes32",
          "name": "",
          "type": "bytes32"
        }
      ],
      "stateMutability": "view",
      "type": "function"
    },
    {
      "inputs": [
        {
          "internalType": "uint256",
          "name": "amount",
          "type": "uint256"
        }
      ],
      "name": "calculateForPreSale",
      "outputs": [
        {
          "internalType": "uint256",
          "name": "",
          "type": "uint256"
        }
      ],
      "stateMutability": "payable",
      "type": "function"
    },
    {
      "inputs": [
        {
          "internalType": "uint256",
          "name": "amount",
          "type": "uint256"
        }
      ],
      "name": "calculateForPublicSale",
      "outputs": [
        {
          "internalType": "uint256",
          "name": "",
          "type": "uint256"
        }
      ],
      "stateMutability": "payable",
      "type": "function"
    },
    {
      "inputs": [
        {
          "internalType": "bytes32",
          "name": "role",
          "type": "bytes32"
        }
      ],
      "name": "getRoleAdmin",
      "outputs": [
        {
          "internalType": "bytes32",
          "name": "",
          "type": "bytes32"
        }
      ],
      "stateMutability": "view",
      "type": "function"
    },
    {
      "inputs": [
        {
          "internalType": "bytes32",
          "name": "role",
          "type": "bytes32"
        },
        {
          "internalType": "address",
          "name": "account",
          "type": "address"
        }
      ],
      "name": "grantRole",
      "outputs": [],
      "stateMutability": "nonpayable",
      "type": "function"
    },
    {
      "inputs": [
        {
          "internalType": "bytes32",
          "name": "role",
          "type": "bytes32"
        },
        {
          "internalType": "address",
          "name": "account",
          "type": "address"
        }
      ],
      "name": "hasRole",
      "outputs": [
        {
          "internalType": "bool",
          "name": "",
          "type": "bool"
        }
      ],
      "stateMutability": "view",
      "type": "function"
    },
    {
      "inputs": [],
      "name": "postsaleEther",
      "outputs": [
        {
          "internalType": "uint256",
          "name": "",
          "type": "uint256"
        }
      ],
      "stateMutability": "view",
      "type": "function"
    },
    {
      "inputs": [
        {
          "internalType": "address payable",
          "name": "sender",
          "type": "address"
        }
      ],
      "name": "preSale",
      "outputs": [],
      "stateMutability": "payable",
      "type": "function"
    },
    {
      "inputs": [],
      "name": "presaleEther",
      "outputs": [
        {
          "internalType": "uint256",
          "name": "",
          "type": "uint256"
        }
      ],
      "stateMutability": "view",
      "type": "function"
    },
    {
      "inputs": [
        {
          "internalType": "address payable",
          "name": "sender",
          "type": "address"
        }
      ],
      "name": "publicSale",
      "outputs": [],
      "stateMutability": "payable",
      "type": "function"
    },
    {
      "inputs": [
        {
          "internalType": "bytes32",
          "name": "role",
          "type": "bytes32"
        },
        {
          "internalType": "address",
          "name": "account",
          "type": "address"
        }
      ],
      "name": "renounceRole",
      "outputs": [],
      "stateMutability": "nonpayable",
      "type": "function"
    },
    {
      "inputs": [
        {
          "internalType": "bytes32",
          "name": "role",
          "type": "bytes32"
        },
        {
          "internalType": "address",
          "name": "account",
          "type": "address"
        }
      ],
      "name": "revokeRole",
      "outputs": [],
      "stateMutability": "nonpayable",
      "type": "function"
    },
    {
      "inputs": [
        {
          "internalType": "bytes4",
          "name": "interfaceId",
          "type": "bytes4"
        }
      ],
      "name": "supportsInterface",
      "outputs": [
        {
          "internalType": "bool",
          "name": "",
          "type": "bool"
        }
      ],
      "stateMutability": "view",
      "type": "function"
    }
  ],
  "bytecode": "0x6080604052600160055560036006553480156200001b57600080fd5b506040516200181d3803806200181d8339818101604052810190620000419190620000f8565b80600160006101000a81548173ffffffffffffffffffffffffffffffffffffffff021916908373ffffffffffffffffffffffffffffffffffffffff16021790555062000092620000d960201b60201c565b600260006101000a81548173ffffffffffffffffffffffffffffffffffffffff021916908373ffffffffffffffffffffffffffffffffffffffff1602179055505062000172565b600033905090565b600081519050620000f28162000158565b92915050565b6000602082840312156200010b57600080fd5b60006200011b84828501620000e1565b91505092915050565b6000620001318262000138565b9050919050565b600073ffffffffffffffffffffffffffffffffffffffff82169050919050565b620001638162000124565b81146200016f57600080fd5b50565b61169b80620001826000396000f3fe6080604052600436106100c25760003560e01c80635b8b06eb1161007f578063a217fddf11610059578063a217fddf14610263578063ba8788d71461028e578063bcd1cb50146102b9578063d547741f146102e9576100c2565b80635b8b06eb146101da57806365f5dc7e1461020a57806391d1485414610226576100c2565b806301ffc9a7146100c7578063248a9ca3146101045780632f2ff15d1461014157806336568abe1461016a57806339dab186146101935780634d0b69b7146101af575b600080fd5b3480156100d357600080fd5b506100ee60048036038101906100e99190610f54565b610312565b6040516100fb919061117b565b60405180910390f35b34801561011057600080fd5b5061012b60048036038101906101269190610eef565b61038c565b6040516101389190611196565b60405180910390f35b34801561014d57600080fd5b5061016860048036038101906101639190610f18565b6103ab565b005b34801561017657600080fd5b50610191600480360381019061018c9190610f18565b6103d4565b005b6101ad60048036038101906101a89190610e9d565b610457565b005b3480156101bb57600080fd5b506101c46105dc565b6040516101d19190611233565b60405180910390f35b6101f460048036038101906101ef9190610f7d565b6105e2565b6040516102019190611233565b60405180910390f35b610224600480360381019061021f9190610e9d565b610609565b005b34801561023257600080fd5b5061024d60048036038101906102489190610f18565b61078e565b60405161025a919061117b565b60405180910390f35b34801561026f57600080fd5b506102786107f8565b6040516102859190611196565b60405180910390f35b34801561029a57600080fd5b506102a36107ff565b6040516102b09190611233565b60405180910390f35b6102d360048036038101906102ce9190610f7d565b610805565b6040516102e09190611233565b60405180910390f35b3480156102f557600080fd5b50610310600480360381019061030b9190610f18565b61082c565b005b60007f7965db0b000000000000000000000000000000000000000000000000000000007bffffffffffffffffffffffffffffffffffffffffffffffffffffffff1916827bffffffffffffffffffffffffffffffffffffffffffffffffffffffff19161480610385575061038482610855565b5b9050919050565b6000806000838152602001908152602001600020600101549050919050565b6103b48261038c565b6103c5816103c06108bf565b6108c7565b6103cf8383610964565b505050565b6103dc6108bf565b73ffffffffffffffffffffffffffffffffffffffff168173ffffffffffffffffffffffffffffffffffffffff1614610449576040517f08c379a000000000000000000000000000000000000000000000000000000000815260040161044090611213565b60405180910390fd5b6104538282610a44565b5050565b670de0b6b3a764000060055461046d91906112fc565b34101580156104915750670de0b6b3a764000060065461048d91906112fc565b3411155b6104d0576040517f08c379a00000000000000000000000000000000000000000000000000000000081526004016104c7906111f3565b60405180910390fd5b8073ffffffffffffffffffffffffffffffffffffffff166108fc6003549081150290604051600060405180830381858888f19350505050158015610518573d6000803e3d6000fd5b506000610524346105e2565b9050600160009054906101000a900473ffffffffffffffffffffffffffffffffffffffff1673ffffffffffffffffffffffffffffffffffffffff1663f5537ede8333846040518463ffffffff1660e01b815260040161058593929190611144565b602060405180830381600087803b15801561059f57600080fd5b505af11580156105b3573d6000803e3d6000fd5b505050506040513d601f19601f820116820180604052508101906105d79190610ec6565b505050565b60035481565b60008060646006846105f491906112fc565b6105fe91906112cb565b905080915050919050565b670de0b6b3a764000060055461061f91906112fc565b34101580156106435750670de0b6b3a764000060065461063f91906112fc565b3411155b610682576040517f08c379a0000000000000000000000000000000000000000000000000000000008152600401610679906111f3565b60405180910390fd5b8073ffffffffffffffffffffffffffffffffffffffff166108fc6003549081150290604051600060405180830381858888f193505050501580156106ca573d6000803e3d6000fd5b5060006106d634610805565b9050600160009054906101000a900473ffffffffffffffffffffffffffffffffffffffff1673ffffffffffffffffffffffffffffffffffffffff1663f5537ede8333846040518463ffffffff1660e01b815260040161073793929190611144565b602060405180830381600087803b15801561075157600080fd5b505af1158015610765573d6000803e3d6000fd5b505050506040513d601f19601f820116820180604052508101906107899190610ec6565b505050565b600080600084815260200190815260200160002060000160008373ffffffffffffffffffffffffffffffffffffffff1673ffffffffffffffffffffffffffffffffffffffff16815260200190815260200160002060009054906101000a900460ff16905092915050565b6000801b81565b60045481565b6000806064600c8461081791906112fc565b61082191906112cb565b905080915050919050565b6108358261038c565b610846816108416108bf565b6108c7565b6108508383610a44565b505050565b60007f01ffc9a7000000000000000000000000000000000000000000000000000000007bffffffffffffffffffffffffffffffffffffffffffffffffffffffff1916827bffffffffffffffffffffffffffffffffffffffffffffffffffffffff1916149050919050565b600033905090565b6108d1828261078e565b610960576108f68173ffffffffffffffffffffffffffffffffffffffff166014610b25565b6109048360001c6020610b25565b60405160200161091592919061110a565b6040516020818303038152906040526040517f08c379a000000000000000000000000000000000000000000000000000000000815260040161095791906111b1565b60405180910390fd5b5050565b61096e828261078e565b610a4057600160008084815260200190815260200160002060000160008373ffffffffffffffffffffffffffffffffffffffff1673ffffffffffffffffffffffffffffffffffffffff16815260200190815260200160002060006101000a81548160ff0219169083151502179055506109e56108bf565b73ffffffffffffffffffffffffffffffffffffffff168173ffffffffffffffffffffffffffffffffffffffff16837f2f8788117e7eff1d82e926ec794901d17c78024a50270940304540a733656f0d60405160405180910390a45b5050565b610a4e828261078e565b15610b2157600080600084815260200190815260200160002060000160008373ffffffffffffffffffffffffffffffffffffffff1673ffffffffffffffffffffffffffffffffffffffff16815260200190815260200160002060006101000a81548160ff021916908315150217905550610ac66108bf565b73ffffffffffffffffffffffffffffffffffffffff168173ffffffffffffffffffffffffffffffffffffffff16837ff6391f5c32d9c69d2a47ea670b442974b53935d1edc7fd64eb21e047a839171b60405160405180910390a45b5050565b606060006002836002610b3891906112fc565b610b429190611275565b67ffffffffffffffff811115610b81577f4e487b7100000000000000000000000000000000000000000000000000000000600052604160045260246000fd5b6040519080825280601f01601f191660200182016040528015610bb35781602001600182028036833780820191505090505b5090507f300000000000000000000000000000000000000000000000000000000000000081600081518110610c11577f4e487b7100000000000000000000000000000000000000000000000000000000600052603260045260246000fd5b60200101907effffffffffffffffffffffffffffffffffffffffffffffffffffffffffffff1916908160001a9053507f780000000000000000000000000000000000000000000000000000000000000081600181518110610c9b577f4e487b7100000000000000000000000000000000000000000000000000000000600052603260045260246000fd5b60200101907effffffffffffffffffffffffffffffffffffffffffffffffffffffffffffff1916908160001a90535060006001846002610cdb91906112fc565b610ce59190611275565b90505b6001811115610dd1577f3031323334353637383961626364656600000000000000000000000000000000600f861660108110610d4d577f4e487b7100000000000000000000000000000000000000000000000000000000600052603260045260246000fd5b1a60f81b828281518110610d8a577f4e487b7100000000000000000000000000000000000000000000000000000000600052603260045260246000fd5b60200101907effffffffffffffffffffffffffffffffffffffffffffffffffffffffffffff1916908160001a905350600485901c945080610dca9061144f565b9050610ce8565b5060008414610e15576040517f08c379a0000000000000000000000000000000000000000000000000000000008152600401610e0c906111d3565b60405180910390fd5b8091505092915050565b600081359050610e2e816115db565b92915050565b600081359050610e43816115f2565b92915050565b600081519050610e5881611609565b92915050565b600081359050610e6d81611620565b92915050565b600081359050610e8281611637565b92915050565b600081359050610e978161164e565b92915050565b600060208284031215610eaf57600080fd5b6000610ebd84828501610e34565b91505092915050565b600060208284031215610ed857600080fd5b6000610ee684828501610e49565b91505092915050565b600060208284031215610f0157600080fd5b6000610f0f84828501610e5e565b91505092915050565b60008060408385031215610f2b57600080fd5b6000610f3985828601610e5e565b9250506020610f4a85828601610e1f565b9150509250929050565b600060208284031215610f6657600080fd5b6000610f7484828501610e73565b91505092915050565b600060208284031215610f8f57600080fd5b6000610f9d84828501610e88565b91505092915050565b610faf816113e6565b82525050565b610fbe81611356565b82525050565b610fcd8161137a565b82525050565b610fdc81611386565b82525050565b6000610fed8261124e565b610ff78185611259565b935061100781856020860161141c565b611010816114d7565b840191505092915050565b60006110268261124e565b611030818561126a565b935061104081856020860161141c565b80840191505092915050565b6000611059602083611259565b9150611064826114e8565b602082019050919050565b600061107c602083611259565b915061108782611511565b602082019050919050565b600061109f60178361126a565b91506110aa8261153a565b601782019050919050565b60006110c260118361126a565b91506110cd82611563565b601182019050919050565b60006110e5602f83611259565b91506110f08261158c565b604082019050919050565b611104816113dc565b82525050565b600061111582611092565b9150611121828561101b565b915061112c826110b5565b9150611138828461101b565b91508190509392505050565b60006060820190506111596000830186610fa6565b6111666020830185610fb5565b61117360408301846110fb565b949350505050565b60006020820190506111906000830184610fc4565b92915050565b60006020820190506111ab6000830184610fd3565b92915050565b600060208201905081810360008301526111cb8184610fe2565b905092915050565b600060208201905081810360008301526111ec8161104c565b9050919050565b6000602082019050818103600083015261120c8161106f565b9050919050565b6000602082019050818103600083015261122c816110d8565b9050919050565b600060208201905061124860008301846110fb565b92915050565b600081519050919050565b600082825260208201905092915050565b600081905092915050565b6000611280826113dc565b915061128b836113dc565b9250827fffffffffffffffffffffffffffffffffffffffffffffffffffffffffffffffff038211156112c0576112bf611479565b5b828201905092915050565b60006112d6826113dc565b91506112e1836113dc565b9250826112f1576112f06114a8565b5b828204905092915050565b6000611307826113dc565b9150611312836113dc565b9250817fffffffffffffffffffffffffffffffffffffffffffffffffffffffffffffffff048311821515161561134b5761134a611479565b5b828202905092915050565b6000611361826113bc565b9050919050565b6000611373826113bc565b9050919050565b60008115159050919050565b6000819050919050565b60007fffffffff0000000000000000000000000000000000000000000000000000000082169050919050565b600073ffffffffffffffffffffffffffffffffffffffff82169050919050565b6000819050919050565b60006113f1826113f8565b9050919050565b60006114038261140a565b9050919050565b6000611415826113bc565b9050919050565b60005b8381101561143a57808201518184015260208101905061141f565b83811115611449576000848401525b50505050565b600061145a826113dc565b9150600082141561146e5761146d611479565b5b600182039050919050565b7f4e487b7100000000000000000000000000000000000000000000000000000000600052601160045260246000fd5b7f4e487b7100000000000000000000000000000000000000000000000000000000600052601260045260246000fd5b6000601f19601f8301169050919050565b7f537472696e67733a20686578206c656e67746820696e73756666696369656e74600082015250565b7f53656e742056616c7565206f66204574686572206973204e6f742056616c6964600082015250565b7f416363657373436f6e74726f6c3a206163636f756e7420000000000000000000600082015250565b7f206973206d697373696e6720726f6c6520000000000000000000000000000000600082015250565b7f416363657373436f6e74726f6c3a2063616e206f6e6c792072656e6f756e636560008201527f20726f6c657320666f722073656c660000000000000000000000000000000000602082015250565b6115e481611356565b81146115ef57600080fd5b50565b6115fb81611368565b811461160657600080fd5b50565b6116128161137a565b811461161d57600080fd5b50565b61162981611386565b811461163457600080fd5b50565b61164081611390565b811461164b57600080fd5b50565b611657816113dc565b811461166257600080fd5b5056fea2646970667358221220f49179b927b854717b3ab490953342fcef7778643060a4751a224478693532a064736f6c63430008040033",
  "linkReferences": {},
  "deployedLinkReferences": {}
}