{
  "_format": "hh-sol-artifact-1",
  "contractName": "Token",
  "sourceName": "contracts/Token.sol",
  "abi": [
    {
      "inputs": [
        {
          "internalType": "string",
          "name": "_tokenName",
          "type": "string"
        },
        {
          "internalType": "string",
          "name": "_tokenSymbol",
          "type": "string"
        }
      ],
      "stateMutability": "nonpayable",
      "type": "constructor"
    },
    {
      "anonymous": false,
      "inputs": [
        {
          "indexed": true,
          "internalType": "address",
          "name": "owner",
          "type": "address"
        },
        {
          "indexed": true,
          "internalType": "address",
          "name": "spender",
          "type": "address"
        },
        {
          "indexed": false,
          "internalType": "uint256",
          "name": "value",
          "type": "uint256"
        }
      ],
      "name": "Approval",
      "type": "event"
    },
    {
      "anonymous": false,
      "inputs": [
        {
          "indexed": true,
          "internalType": "bytes32",
          "name": "role",
          "type": "bytes32"
        },
        {
          "indexed": true,
          "internalType": "bytes32",
          "name": "previousAdminRole",
          "type": "bytes32"
        },
        {
          "indexed": true,
          "internalType": "bytes32",
          "name": "newAdminRole",
          "type": "bytes32"
        }
      ],
      "name": "RoleAdminChanged",
      "type": "event"
    },
    {
      "anonymous": false,
      "inputs": [
        {
          "indexed": true,
          "internalType": "bytes32",
          "name": "role",
          "type": "bytes32"
        },
        {
          "indexed": true,
          "internalType": "address",
          "name": "account",
          "type": "address"
        },
        {
          "indexed": true,
          "internalType": "address",
          "name": "sender",
          "type": "address"
        }
      ],
      "name": "RoleGranted",
      "type": "event"
    },
    {
      "anonymous": false,
      "inputs": [
        {
          "indexed": true,
          "internalType": "bytes32",
          "name": "role",
          "type": "bytes32"
        },
        {
          "indexed": true,
          "internalType": "address",
          "name": "account",
          "type": "address"
        },
        {
          "indexed": true,
          "internalType": "address",
          "name": "sender",
          "type": "address"
        }
      ],
      "name": "RoleRevoked",
      "type": "event"
    },
    {
      "anonymous": false,
      "inputs": [
        {
          "indexed": true,
          "internalType": "address",
          "name": "from",
          "type": "address"
        },
        {
          "indexed": true,
          "internalType": "address",
          "name": "to",
          "type": "address"
        },
        {
          "indexed": false,
          "internalType": "uint256",
          "name": "value",
          "type": "uint256"
        }
      ],
      "name": "Transfer",
      "type": "event"
    },
    {
      "inputs": [],
      "name": "DEFAULT_ADMIN_ROLE",
      "outputs": [
        {
          "internalType": "bytes32",
          "name": "",
          "type": "bytes32"
        }
      ],
      "stateMutability": "view",
      "type": "function"
    },
    {
      "inputs": [
        {
          "internalType": "address",
          "name": "owner",
          "type": "address"
        },
        {
          "internalType": "address",
          "name": "spender",
          "type": "address"
        }
      ],
      "name": "allowance",
      "outputs": [
        {
          "internalType": "uint256",
          "name": "",
          "type": "uint256"
        }
      ],
      "stateMutability": "view",
      "type": "function"
    },
    {
      "inputs": [
        {
          "internalType": "address",
          "name": "spender",
          "type": "address"
        },
        {
          "internalType": "uint256",
          "name": "amount",
          "type": "uint256"
        }
      ],
      "name": "approve",
      "outputs": [
        {
          "internalType": "bool",
          "name": "",
          "type": "bool"
        }
      ],
      "stateMutability": "nonpayable",
      "type": "function"
    },
    {
      "inputs": [
        {
          "internalType": "address",
          "name": "account",
          "type": "address"
        }
      ],
      "name": "balanceOf",
      "outputs": [
        {
          "internalType": "uint256",
          "name": "",
          "type": "uint256"
        }
      ],
      "stateMutability": "view",
      "type": "function"
    },
    {
      "inputs": [],
      "name": "changeBool",
      "outputs": [],
      "stateMutability": "nonpayable",
      "type": "function"
    },
    {
      "inputs": [],
      "name": "decimals",
      "outputs": [
        {
          "internalType": "uint8",
          "name": "",
          "type": "uint8"
        }
      ],
      "stateMutability": "view",
      "type": "function"
    },
    {
      "inputs": [
        {
          "internalType": "address",
          "name": "spender",
          "type": "address"
        },
        {
          "internalType": "uint256",
          "name": "subtractedValue",
          "type": "uint256"
        }
      ],
      "name": "decreaseAllowance",
      "outputs": [
        {
          "internalType": "bool",
          "name": "",
          "type": "bool"
        }
      ],
      "stateMutability": "nonpayable",
      "type": "function"
    },
    {
      "inputs": [
        {
          "internalType": "bytes32",
          "name": "role",
          "type": "bytes32"
        }
      ],
      "name": "getRoleAdmin",
      "outputs": [
        {
          "internalType": "bytes32",
          "name": "",
          "type": "bytes32"
        }
      ],
      "stateMutability": "view",
      "type": "function"
    },
    {
      "inputs": [
        {
          "internalType": "bytes32",
          "name": "role",
          "type": "bytes32"
        },
        {
          "internalType": "address",
          "name": "account",
          "type": "address"
        }
      ],
      "name": "grantRole",
      "outputs": [],
      "stateMutability": "nonpayable",
      "type": "function"
    },
    {
      "inputs": [
        {
          "internalType": "bytes32",
          "name": "role",
          "type": "bytes32"
        },
        {
          "internalType": "address",
          "name": "account",
          "type": "address"
        }
      ],
      "name": "hasRole",
      "outputs": [
        {
          "internalType": "bool",
          "name": "",
          "type": "bool"
        }
      ],
      "stateMutability": "view",
      "type": "function"
    },
    {
      "inputs": [
        {
          "internalType": "address",
          "name": "spender",
          "type": "address"
        },
        {
          "internalType": "uint256",
          "name": "addedValue",
          "type": "uint256"
        }
      ],
      "name": "increaseAllowance",
      "outputs": [
        {
          "internalType": "bool",
          "name": "",
          "type": "bool"
        }
      ],
      "stateMutability": "nonpayable",
      "type": "function"
    },
    {
      "inputs": [],
      "name": "name",
      "outputs": [
        {
          "internalType": "string",
          "name": "",
          "type": "string"
        }
      ],
      "stateMutability": "view",
      "type": "function"
    },
    {
      "inputs": [],
      "name": "owner",
      "outputs": [
        {
          "internalType": "address",
          "name": "",
          "type": "address"
        }
      ],
      "stateMutability": "view",
      "type": "function"
    },
    {
      "inputs": [
        {
          "internalType": "bytes32",
          "name": "role",
          "type": "bytes32"
        },
        {
          "internalType": "address",
          "name": "account",
          "type": "address"
        }
      ],
      "name": "renounceRole",
      "outputs": [],
      "stateMutability": "nonpayable",
      "type": "function"
    },
    {
      "inputs": [
        {
          "internalType": "bytes32",
          "name": "role",
          "type": "bytes32"
        },
        {
          "internalType": "address",
          "name": "account",
          "type": "address"
        }
      ],
      "name": "revokeRole",
      "outputs": [],
      "stateMutability": "nonpayable",
      "type": "function"
    },
    {
      "inputs": [
        {
          "internalType": "bytes4",
          "name": "interfaceId",
          "type": "bytes4"
        }
      ],
      "name": "supportsInterface",
      "outputs": [
        {
          "internalType": "bool",
          "name": "",
          "type": "bool"
        }
      ],
      "stateMutability": "view",
      "type": "function"
    },
    {
      "inputs": [],
      "name": "symbol",
      "outputs": [
        {
          "internalType": "string",
          "name": "",
          "type": "string"
        }
      ],
      "stateMutability": "view",
      "type": "function"
    },
    {
      "inputs": [],
      "name": "totalSupply",
      "outputs": [
        {
          "internalType": "uint256",
          "name": "",
          "type": "uint256"
        }
      ],
      "stateMutability": "view",
      "type": "function"
    },
    {
      "inputs": [
        {
          "internalType": "address",
          "name": "sender",
          "type": "address"
        },
        {
          "internalType": "address",
          "name": "_recipient",
          "type": "address"
        },
        {
          "internalType": "uint256",
          "name": "_amount",
          "type": "uint256"
        }
      ],
      "name": "transferToken",
      "outputs": [
        {
          "internalType": "bool",
          "name": "",
          "type": "bool"
        }
      ],
      "stateMutability": "nonpayable",
      "type": "function"
    }
  ],
  "bytecode": "0x608060405260126008553480156200001657600080fd5b506040516200290a3803806200290a83398181016040528101906200003c9190620003db565b8181816003908051906020019062000056929190620002b9565b5080600490805190602001906200006f929190620002b9565b50505033600660006101000a81548173ffffffffffffffffffffffffffffffffffffffff021916908373ffffffffffffffffffffffffffffffffffffffff160217905550620000f8620000c76200010060201b60201c565b620000ec69021e19e0c9bab240000060016200010860201b62000ada1790919060201c565b6200012060201b60201c565b505062000766565b600033905090565b6000818362000118919062000592565b905092915050565b6200013282826200013660201b60201c565b5050565b600073ffffffffffffffffffffffffffffffffffffffff168273ffffffffffffffffffffffffffffffffffffffff161415620001a9576040517f08c379a0000000000000000000000000000000000000000000000000000000008152600401620001a09062000486565b60405180910390fd5b620001bd60008383620002af60201b60201c565b8060026000828254620001d1919062000535565b92505081905550806000808473ffffffffffffffffffffffffffffffffffffffff1673ffffffffffffffffffffffffffffffffffffffff168152602001908152602001600020600082825462000228919062000535565b925050819055508173ffffffffffffffffffffffffffffffffffffffff16600073ffffffffffffffffffffffffffffffffffffffff167fddf252ad1be2c89b69c2b068fc378daa952ba7f163c4a11628f55a4df523b3ef836040516200028f9190620004a8565b60405180910390a3620002ab60008383620002b460201b60201c565b5050565b505050565b505050565b828054620002c79062000633565b90600052602060002090601f016020900481019282620002eb576000855562000337565b82601f106200030657805160ff191683800117855562000337565b8280016001018555821562000337579182015b828111156200033657825182559160200191906001019062000319565b5b5090506200034691906200034a565b5090565b5b80821115620003655760008160009055506001016200034b565b5090565b6000620003806200037a84620004ee565b620004c5565b9050828152602081018484840111156200039957600080fd5b620003a6848285620005fd565b509392505050565b600082601f830112620003c057600080fd5b8151620003d284826020860162000369565b91505092915050565b60008060408385031215620003ef57600080fd5b600083015167ffffffffffffffff8111156200040a57600080fd5b6200041885828601620003ae565b925050602083015167ffffffffffffffff8111156200043657600080fd5b6200044485828601620003ae565b9150509250929050565b60006200045d601f8362000524565b91506200046a826200073d565b602082019050919050565b6200048081620005f3565b82525050565b60006020820190508181036000830152620004a1816200044e565b9050919050565b6000602082019050620004bf600083018462000475565b92915050565b6000620004d1620004e4565b9050620004df828262000669565b919050565b6000604051905090565b600067ffffffffffffffff8211156200050c576200050b620006fd565b5b62000517826200072c565b9050602081019050919050565b600082825260208201905092915050565b60006200054282620005f3565b91506200054f83620005f3565b9250827fffffffffffffffffffffffffffffffffffffffffffffffffffffffffffffffff038211156200058757620005866200069f565b5b828201905092915050565b60006200059f82620005f3565b9150620005ac83620005f3565b9250817fffffffffffffffffffffffffffffffffffffffffffffffffffffffffffffffff0483118215151615620005e857620005e76200069f565b5b828202905092915050565b6000819050919050565b60005b838110156200061d57808201518184015260208101905062000600565b838111156200062d576000848401525b50505050565b600060028204905060018216806200064c57607f821691505b60208210811415620006635762000662620006ce565b5b50919050565b62000674826200072c565b810181811067ffffffffffffffff82111715620006965762000695620006fd565b5b80604052505050565b7f4e487b7100000000000000000000000000000000000000000000000000000000600052601160045260246000fd5b7f4e487b7100000000000000000000000000000000000000000000000000000000600052602260045260246000fd5b7f4e487b7100000000000000000000000000000000000000000000000000000000600052604160045260246000fd5b6000601f19601f8301169050919050565b7f45524332303a206d696e7420746f20746865207a65726f206164647265737300600082015250565b61219480620007766000396000f3fe608060405234801561001057600080fd5b50600436106101215760003560e01c80635de24c67116100ad578063a217fddf11610071578063a217fddf1461031e578063a457c2d71461033c578063d547741f1461036c578063dd62ed3e14610388578063f5537ede146103b857610121565b80635de24c671461027857806370a08231146102825780638da5cb5b146102b257806391d14854146102d057806395d89b411461030057610121565b8063248a9ca3116100f4578063248a9ca3146101c25780632f2ff15d146101f2578063313ce5671461020e57806336568abe1461022c578063395093511461024857610121565b806301ffc9a71461012657806306fdde0314610156578063095ea7b31461017457806318160ddd146101a4575b600080fd5b610140600480360381019061013b91906116bb565b6103e8565b60405161014d9190611992565b60405180910390f35b61015e610462565b60405161016b91906119c8565b60405180910390f35b61018e6004803603810190610189919061161a565b6104f4565b60405161019b9190611992565b60405180910390f35b6101ac610512565b6040516101b99190611b2a565b60405180910390f35b6101dc60048036038101906101d79190611656565b61051c565b6040516101e991906119ad565b60405180910390f35b61020c6004803603810190610207919061167f565b61053c565b005b610216610565565b6040516102239190611b45565b60405180910390f35b6102466004803603810190610241919061167f565b61056e565b005b610262600480360381019061025d919061161a565b6105f1565b60405161026f9190611992565b60405180910390f35b61028061069d565b005b61029c60048036038101906102979190611566565b610760565b6040516102a99190611b2a565b60405180910390f35b6102ba6107a8565b6040516102c79190611977565b60405180910390f35b6102ea60048036038101906102e5919061167f565b6107ce565b6040516102f79190611992565b60405180910390f35b610308610839565b60405161031591906119c8565b60405180910390f35b6103266108cb565b60405161033391906119ad565b60405180910390f35b6103566004803603810190610351919061161a565b6108d2565b6040516103639190611992565b60405180910390f35b6103866004803603810190610381919061167f565b6109bd565b005b6103a2600480360381019061039d919061158f565b6109e6565b6040516103af9190611b2a565b60405180910390f35b6103d260048036038101906103cd91906115cb565b610a6d565b6040516103df9190611992565b60405180910390f35b60007f7965db0b000000000000000000000000000000000000000000000000000000007bffffffffffffffffffffffffffffffffffffffffffffffffffffffff1916827bffffffffffffffffffffffffffffffffffffffffffffffffffffffff1916148061045b575061045a82610af0565b5b9050919050565b60606003805461047190611d1f565b80601f016020809104026020016040519081016040528092919081815260200182805461049d90611d1f565b80156104ea5780601f106104bf576101008083540402835291602001916104ea565b820191906000526020600020905b8154815290600101906020018083116104cd57829003601f168201915b5050505050905090565b6000610508610501610b5a565b8484610b62565b6001905092915050565b6000600254905090565b600060056000838152602001908152602001600020600101549050919050565b6105458261051c565b61055681610551610b5a565b610d2d565b6105608383610dca565b505050565b60006012905090565b610576610b5a565b73ffffffffffffffffffffffffffffffffffffffff168173ffffffffffffffffffffffffffffffffffffffff16146105e3576040517f08c379a00000000000000000000000000000000000000000000000000000000081526004016105da90611aea565b60405180910390fd5b6105ed8282610eab565b5050565b60006106936105fe610b5a565b84846001600061060c610b5a565b73ffffffffffffffffffffffffffffffffffffffff1673ffffffffffffffffffffffffffffffffffffffff16815260200190815260200160002060008873ffffffffffffffffffffffffffffffffffffffff1673ffffffffffffffffffffffffffffffffffffffff1681526020019081526020016000205461068e9190611b87565b610b62565b6001905092915050565b600660009054906101000a900473ffffffffffffffffffffffffffffffffffffffff1673ffffffffffffffffffffffffffffffffffffffff166106de610b5a565b73ffffffffffffffffffffffffffffffffffffffff1614610734576040517f08c379a000000000000000000000000000000000000000000000000000000000815260040161072b90611a6a565b60405180910390fd5b600660149054906101000a900460ff1615600660146101000a81548160ff021916908315150217905550565b60008060008373ffffffffffffffffffffffffffffffffffffffff1673ffffffffffffffffffffffffffffffffffffffff168152602001908152602001600020549050919050565b600660009054906101000a900473ffffffffffffffffffffffffffffffffffffffff1681565b60006005600084815260200190815260200160002060000160008373ffffffffffffffffffffffffffffffffffffffff1673ffffffffffffffffffffffffffffffffffffffff16815260200190815260200160002060009054906101000a900460ff16905092915050565b60606004805461084890611d1f565b80601f016020809104026020016040519081016040528092919081815260200182805461087490611d1f565b80156108c15780601f10610896576101008083540402835291602001916108c1565b820191906000526020600020905b8154815290600101906020018083116108a457829003601f168201915b5050505050905090565b6000801b81565b600080600160006108e1610b5a565b73ffffffffffffffffffffffffffffffffffffffff1673ffffffffffffffffffffffffffffffffffffffff16815260200190815260200160002060008573ffffffffffffffffffffffffffffffffffffffff1673ffffffffffffffffffffffffffffffffffffffff1681526020019081526020016000205490508281101561099e576040517f08c379a000000000000000000000000000000000000000000000000000000000815260040161099590611aca565b60405180910390fd5b6109b26109a9610b5a565b85858403610b62565b600191505092915050565b6109c68261051c565b6109d7816109d2610b5a565b610d2d565b6109e18383610eab565b505050565b6000600160008473ffffffffffffffffffffffffffffffffffffffff1673ffffffffffffffffffffffffffffffffffffffff16815260200190815260200160002060008373ffffffffffffffffffffffffffffffffffffffff1673ffffffffffffffffffffffffffffffffffffffff16815260200190815260200160002054905092915050565b6000801515600660149054906101000a900460ff16151514610ac4576040517f08c379a0000000000000000000000000000000000000000000000000000000008152600401610abb90611b0a565b60405180910390fd5b610acf848484610f8d565b600190509392505050565b60008183610ae89190611bdd565b905092915050565b60007f01ffc9a7000000000000000000000000000000000000000000000000000000007bffffffffffffffffffffffffffffffffffffffffffffffffffffffff1916827bffffffffffffffffffffffffffffffffffffffffffffffffffffffff1916149050919050565b600033905090565b600073ffffffffffffffffffffffffffffffffffffffff168373ffffffffffffffffffffffffffffffffffffffff161415610bd2576040517f08c379a0000000000000000000000000000000000000000000000000000000008152600401610bc990611aaa565b60405180910390fd5b600073ffffffffffffffffffffffffffffffffffffffff168273ffffffffffffffffffffffffffffffffffffffff161415610c42576040517f08c379a0000000000000000000000000000000000000000000000000000000008152600401610c3990611a2a565b60405180910390fd5b80600160008573ffffffffffffffffffffffffffffffffffffffff1673ffffffffffffffffffffffffffffffffffffffff16815260200190815260200160002060008473ffffffffffffffffffffffffffffffffffffffff1673ffffffffffffffffffffffffffffffffffffffff168152602001908152602001600020819055508173ffffffffffffffffffffffffffffffffffffffff168373ffffffffffffffffffffffffffffffffffffffff167f8c5be1e5ebec7d5bd14f71427d1e84f3dd0314c0f7b2291e5b200ac8c7c3b92583604051610d209190611b2a565b60405180910390a3505050565b610d3782826107ce565b610dc657610d5c8173ffffffffffffffffffffffffffffffffffffffff16601461120e565b610d6a8360001c602061120e565b604051602001610d7b92919061193d565b6040516020818303038152906040526040517f08c379a0000000000000000000000000000000000000000000000000000000008152600401610dbd91906119c8565b60405180910390fd5b5050565b610dd482826107ce565b610ea75760016005600084815260200190815260200160002060000160008373ffffffffffffffffffffffffffffffffffffffff1673ffffffffffffffffffffffffffffffffffffffff16815260200190815260200160002060006101000a81548160ff021916908315150217905550610e4c610b5a565b73ffffffffffffffffffffffffffffffffffffffff168173ffffffffffffffffffffffffffffffffffffffff16837f2f8788117e7eff1d82e926ec794901d17c78024a50270940304540a733656f0d60405160405180910390a45b5050565b610eb582826107ce565b15610f895760006005600084815260200190815260200160002060000160008373ffffffffffffffffffffffffffffffffffffffff1673ffffffffffffffffffffffffffffffffffffffff16815260200190815260200160002060006101000a81548160ff021916908315150217905550610f2e610b5a565b73ffffffffffffffffffffffffffffffffffffffff168173ffffffffffffffffffffffffffffffffffffffff16837ff6391f5c32d9c69d2a47ea670b442974b53935d1edc7fd64eb21e047a839171b60405160405180910390a45b5050565b600073ffffffffffffffffffffffffffffffffffffffff168373ffffffffffffffffffffffffffffffffffffffff161415610ffd576040517f08c379a0000000000000000000000000000000000000000000000000000000008152600401610ff490611a8a565b60405180910390fd5b600073ffffffffffffffffffffffffffffffffffffffff168273ffffffffffffffffffffffffffffffffffffffff16141561106d576040517f08c379a000000000000000000000000000000000000000000000000000000000815260040161106490611a0a565b60405180910390fd5b611078838383611508565b60008060008573ffffffffffffffffffffffffffffffffffffffff1673ffffffffffffffffffffffffffffffffffffffff168152602001908152602001600020549050818110156110fe576040517f08c379a00000000000000000000000000000000000000000000000000000000081526004016110f590611a4a565b60405180910390fd5b8181036000808673ffffffffffffffffffffffffffffffffffffffff1673ffffffffffffffffffffffffffffffffffffffff16815260200190815260200160002081905550816000808573ffffffffffffffffffffffffffffffffffffffff1673ffffffffffffffffffffffffffffffffffffffff16815260200190815260200160002060008282546111919190611b87565b925050819055508273ffffffffffffffffffffffffffffffffffffffff168473ffffffffffffffffffffffffffffffffffffffff167fddf252ad1be2c89b69c2b068fc378daa952ba7f163c4a11628f55a4df523b3ef846040516111f59190611b2a565b60405180910390a361120884848461150d565b50505050565b6060600060028360026112219190611bdd565b61122b9190611b87565b67ffffffffffffffff81111561126a577f4e487b7100000000000000000000000000000000000000000000000000000000600052604160045260246000fd5b6040519080825280601f01601f19166020018201604052801561129c5781602001600182028036833780820191505090505b5090507f3000000000000000000000000000000000000000000000000000000000000000816000815181106112fa577f4e487b7100000000000000000000000000000000000000000000000000000000600052603260045260246000fd5b60200101907effffffffffffffffffffffffffffffffffffffffffffffffffffffffffffff1916908160001a9053507f780000000000000000000000000000000000000000000000000000000000000081600181518110611384577f4e487b7100000000000000000000000000000000000000000000000000000000600052603260045260246000fd5b60200101907effffffffffffffffffffffffffffffffffffffffffffffffffffffffffffff1916908160001a905350600060018460026113c49190611bdd565b6113ce9190611b87565b90505b60018111156114ba577f3031323334353637383961626364656600000000000000000000000000000000600f861660108110611436577f4e487b7100000000000000000000000000000000000000000000000000000000600052603260045260246000fd5b1a60f81b828281518110611473577f4e487b7100000000000000000000000000000000000000000000000000000000600052603260045260246000fd5b60200101907effffffffffffffffffffffffffffffffffffffffffffffffffffffffffffff1916908160001a905350600485901c9450806114b390611cf5565b90506113d1565b50600084146114fe576040517f08c379a00000000000000000000000000000000000000000000000000000000081526004016114f5906119ea565b60405180910390fd5b8091505092915050565b505050565b505050565b60008135905061152181612102565b92915050565b60008135905061153681612119565b92915050565b60008135905061154b81612130565b92915050565b60008135905061156081612147565b92915050565b60006020828403121561157857600080fd5b600061158684828501611512565b91505092915050565b600080604083850312156115a257600080fd5b60006115b085828601611512565b92505060206115c185828601611512565b9150509250929050565b6000806000606084860312156115e057600080fd5b60006115ee86828701611512565b93505060206115ff86828701611512565b925050604061161086828701611551565b9150509250925092565b6000806040838503121561162d57600080fd5b600061163b85828601611512565b925050602061164c85828601611551565b9150509250929050565b60006020828403121561166857600080fd5b600061167684828501611527565b91505092915050565b6000806040838503121561169257600080fd5b60006116a085828601611527565b92505060206116b185828601611512565b9150509250929050565b6000602082840312156116cd57600080fd5b60006116db8482850161153c565b91505092915050565b6116ed81611c37565b82525050565b6116fc81611c49565b82525050565b61170b81611c55565b82525050565b600061171c82611b60565b6117268185611b6b565b9350611736818560208601611cc2565b61173f81611daf565b840191505092915050565b600061175582611b60565b61175f8185611b7c565b935061176f818560208601611cc2565b80840191505092915050565b6000611788602083611b6b565b915061179382611dc0565b602082019050919050565b60006117ab602383611b6b565b91506117b682611de9565b604082019050919050565b60006117ce602283611b6b565b91506117d982611e38565b604082019050919050565b60006117f1602683611b6b565b91506117fc82611e87565b604082019050919050565b6000611814602283611b6b565b915061181f82611ed6565b604082019050919050565b6000611837602583611b6b565b915061184282611f25565b604082019050919050565b600061185a602483611b6b565b915061186582611f74565b604082019050919050565b600061187d601783611b7c565b915061188882611fc3565b601782019050919050565b60006118a0602583611b6b565b91506118ab82611fec565b604082019050919050565b60006118c3601183611b7c565b91506118ce8261203b565b601182019050919050565b60006118e6602f83611b6b565b91506118f182612064565b604082019050919050565b6000611909602583611b6b565b9150611914826120b3565b604082019050919050565b61192881611cab565b82525050565b61193781611cb5565b82525050565b600061194882611870565b9150611954828561174a565b915061195f826118b6565b915061196b828461174a565b91508190509392505050565b600060208201905061198c60008301846116e4565b92915050565b60006020820190506119a760008301846116f3565b92915050565b60006020820190506119c26000830184611702565b92915050565b600060208201905081810360008301526119e28184611711565b905092915050565b60006020820190508181036000830152611a038161177b565b9050919050565b60006020820190508181036000830152611a238161179e565b9050919050565b60006020820190508181036000830152611a43816117c1565b9050919050565b60006020820190508181036000830152611a63816117e4565b9050919050565b60006020820190508181036000830152611a8381611807565b9050919050565b60006020820190508181036000830152611aa38161182a565b9050919050565b60006020820190508181036000830152611ac38161184d565b9050919050565b60006020820190508181036000830152611ae381611893565b9050919050565b60006020820190508181036000830152611b03816118d9565b9050919050565b60006020820190508181036000830152611b23816118fc565b9050919050565b6000602082019050611b3f600083018461191f565b92915050565b6000602082019050611b5a600083018461192e565b92915050565b600081519050919050565b600082825260208201905092915050565b600081905092915050565b6000611b9282611cab565b9150611b9d83611cab565b9250827fffffffffffffffffffffffffffffffffffffffffffffffffffffffffffffffff03821115611bd257611bd1611d51565b5b828201905092915050565b6000611be882611cab565b9150611bf383611cab565b9250817fffffffffffffffffffffffffffffffffffffffffffffffffffffffffffffffff0483118215151615611c2c57611c2b611d51565b5b828202905092915050565b6000611c4282611c8b565b9050919050565b60008115159050919050565b6000819050919050565b60007fffffffff0000000000000000000000000000000000000000000000000000000082169050919050565b600073ffffffffffffffffffffffffffffffffffffffff82169050919050565b6000819050919050565b600060ff82169050919050565b60005b83811015611ce0578082015181840152602081019050611cc5565b83811115611cef576000848401525b50505050565b6000611d0082611cab565b91506000821415611d1457611d13611d51565b5b600182039050919050565b60006002820490506001821680611d3757607f821691505b60208210811415611d4b57611d4a611d80565b5b50919050565b7f4e487b7100000000000000000000000000000000000000000000000000000000600052601160045260246000fd5b7f4e487b7100000000000000000000000000000000000000000000000000000000600052602260045260246000fd5b6000601f19601f8301169050919050565b7f537472696e67733a20686578206c656e67746820696e73756666696369656e74600082015250565b7f45524332303a207472616e7366657220746f20746865207a65726f206164647260008201527f6573730000000000000000000000000000000000000000000000000000000000602082015250565b7f45524332303a20617070726f766520746f20746865207a65726f20616464726560008201527f7373000000000000000000000000000000000000000000000000000000000000602082015250565b7f45524332303a207472616e7366657220616d6f756e742065786365656473206260008201527f616c616e63650000000000000000000000000000000000000000000000000000602082015250565b7f544849532046554e4354494f4e204f4e4c5920574f524b5320464f52204f574e60008201527f4552000000000000000000000000000000000000000000000000000000000000602082015250565b7f45524332303a207472616e736665722066726f6d20746865207a65726f20616460008201527f6472657373000000000000000000000000000000000000000000000000000000602082015250565b7f45524332303a20617070726f76652066726f6d20746865207a65726f2061646460008201527f7265737300000000000000000000000000000000000000000000000000000000602082015250565b7f416363657373436f6e74726f6c3a206163636f756e7420000000000000000000600082015250565b7f45524332303a2064656372656173656420616c6c6f77616e63652062656c6f7760008201527f207a65726f000000000000000000000000000000000000000000000000000000602082015250565b7f206973206d697373696e6720726f6c6520000000000000000000000000000000600082015250565b7f416363657373436f6e74726f6c3a2063616e206f6e6c792072656e6f756e636560008201527f20726f6c657320666f722073656c660000000000000000000000000000000000602082015250565b7f546869732066756e6374696f6e206973206e6f7420616374697665206375727260008201527f656e746c79000000000000000000000000000000000000000000000000000000602082015250565b61210b81611c37565b811461211657600080fd5b50565b61212281611c55565b811461212d57600080fd5b50565b61213981611c5f565b811461214457600080fd5b50565b61215081611cab565b811461215b57600080fd5b5056fea26469706673582212209912bdeba57296d96b38553e5de1f92919d107e921d6142ac8013b2e4757e2bb64736f6c63430008040033",
  "linkReferences": {},
  "deployedLinkReferences": {}
}